:1000000012C02AC029C028C027C026C025C024C0CD
:1000100023C022C021C020C01FC01EC01DC01CC0E4
:100020001BC01AC019C011241FBECFEDCDBF10E0F8
:10003000A0E6B0E0E8EFF5E002C005900D92A83A26
:10004000B107D9F720E0A8EAB0E001C01D92A33BB8
:10005000B207E1F771D2CEC2D3CF81B3846081BB46
:100060008FEF87BB81B3886781BB089512B887E69D
:1000700089B91BB88AB184618AB983B1866283B9B0
:100080000895E199FECF8EBB6DBB8CB384608CBBB1
:100090008CB382608CBB0895E199FECF8EBB8CB38C
:1000A00081608CBB8FE19EE40197F1F700C00000F6
:1000B0008DB30895CF92DF92EF92FF920F931F932B
:1000C000CF93DF936C017B018A01C0E0D0E00DC0CB
:1000D000F701EC0FFD1F6081CE018C0D9D1DD1DF5E
:1000E00085E38A95F1F700002196C017D10780F3C8
:1000F000DF91CF911F910F91FF90EF90DF90CF9004
:100100000895AF92BF92CF92DF92EF92FF920F933A
:100110001F93CF93DF935C016B017A01C0E0D0E0C5
:100120000EC086010C0F1D1FCE018A0D9B1DB4DF72
:10013000F8018083F5E3FA95F1F700002196CE15DA
:10014000DF0578F3DF91CF911F910F91FF90EF9032
:10015000DF90CF90BF90AF9008958130910569F402
:1001600082B3806282BB8FE99FE00197F1F700C004
:10017000000082B38F7D82BB0EC0029761F482B310
:10018000806482BB8FE99FE00197F1F700C0000017
:1001900082B38F7B82BB8FE99FE00197F1F700C0AC
:1001A0000000089588BB92B3977F92BB92B39F7E65
:1001B00092BBCB01D2DF089588BB92B3986092BB0B
:1001C00092B39F7E92BBCB01C8DF0895EF92FF925E
:1001D0000F931F93CF93DF938C017B01C0E0D0E09E
:1001E00009C0B701E9DF8FE99FE00197F1F700C08F
:1001F00000002196F801EC0FFD1F80818111F1CFE5
:10020000DF91CF911F910F91FF90EF900895CF93C1
:10021000DF93EC0118BA12BA8FE39CE90197F1F76A
:1002200000C00000BE0188E3BDDF8FE99FE00197B9
:10023000F1F700C00000BE018FE0B4DF8FE99FE05E
:100240000197F1F700C00000BE0181E0ABDF8FE94C
:100250009FE00197F1F700C00000BE0186E0A2DF39
:100260008FE99FE00197F1F700C00000DF91CF9187
:100270000895CF93DF93CDB7DD27C552CDBF8DE075
:10028000E6E6F0E0DE01119601900D928A95E1F725
:100290008EE29EE29F878E878EE290E0998B888B1C
:1002A00061E070E081E07EDF8FE99FE00197F1F788
:1002B00000C0000061E070E08FE074DF8FE99FE034
:1002C0000197F1F700C0000061E070E080E86ADFAC
:1002D00061E070E0CE01019679DF61E070E080ECD2
:1002E00061DF8FE99FE00197F1F700C0000061E056
:1002F00070E0CE010E966ADF8FE99FE00197F1F77B
:1003000000C0000088E0E3E7F0E0DE0152960190D3
:100310000D928A95E1F78CE0EBE7F0E0DE015A966A
:1003200001900D928A95E1F762E070E081E03ADF9A
:100330008FE99FE00197F1F700C0000062E070E0F4
:1003400086E830DF62E070E0CE0142963FDF62E097
:1003500070E080EC27DF8FE99FE00197F1F700C0A4
:10036000000062E070E0CE014A9630DF9FEF29E6A0
:1003700088E1915020408040E1F700C0000061E03A
:1003800070E081E00FDF61E070E080EC0BDF8FE96F
:100390009FE00197F1F700C0000061E070E0CE013E
:1003A0000E9614DF8FE99FE00197F1F700C000007F
:1003B00062E070E086E8F6DE8FE99FE00197F1F7F2
:1003C00000C0000062E070E0CE010196FFDE8FE920
:1003D0009FE00197F1F700C00000CB5DCDBFDF913A
:1003E000CF9108950F931F93CF93DF93CDB7DD2760
:1003F000C052CDBF5A9B0CC082E090E09093A90000
:100400008093A8001BB81092AB001092AA008DC078
:1004100081E090E09093A9008093A8002CB18FE137
:100420009EE40197F1F700C00000203389F080912D
:10043000AA009091AB008530910554F4FC01E2557F
:10044000FF4F208301969093AB008093AA006DC06C
:100450001092AB001092AA001092AD001092AC0066
:1004600080E090E011C0FC01E255FF4F508121E097
:1004700030E0451711F020E030E03093AD002093DC
:10048000AC00232B39F00196FC01E05AFF4F40816C
:100490004111E9CF8091AC009091AD00019709F036
:1004A00044C040E250E0BE016F5F7F4F80E090E0CB
:1004B00028DE61E070E081E075DE8FE99FE0019762
:1004C000F1F700C0000000E010E019C0E1E0F0E04A
:1004D000EC0FFD1FE00FF11F61E070E080816CDE2A
:1004E0000E30110521F461E070E080EC5BDE8FE8F6
:1004F00091E00197F1F700C000000F5F1F4F00323D
:10050000110524F39FEF23ED80E3915020408040BC
:10051000E1F700C0000061E070E081E043DE8FE9B8
:100520009FE00197F1F700C00000C05ECDBFDF91F2
:10053000CF911F910F910895CF93DF93CDB7DD2712
:10054000C052CDBF8ADD81E090E061DE82E090E0C4
:100550005EDE8FE19EE40197F1F700C0000086DDCA
:1005600080E2E7E8F0E0DE01119601900D928A95B5
:10057000E1F77FDE40E250E0BE016F5F7F4F80E039
:1005800090E098DD8091A8009091A90081309105BC
:1005900049F08230910551F0892B09F582B38B7FA8
:1005A00082BB20C082B3846082BB1CC082B38460E3
:1005B00082BB9FEF23EC89E0915020408040E1F71F
:1005C00000C0000082B38B7F82BB9FEF23EC89E0E9
:1005D000915020408040E1F700C0000003C082B38A
:1005E000846082BB61E070E08CE1DCDD5F9BCACFA0
:0805F000F9DEC8CFF894FFCF3B
:1005F8005052494E5400507265737320627574747A
:100608006F6E007550202620754300447279207261
:10061800756E20312E300047615620524F434B53A0
:10062800202121205F20204461746120746F2064A0
:080638006973706C6179000028
:00000001FF
