:1000000012C022C021C020C01FC01EC01DC01CC005
:100010001BC01AC019C018C017C016C015C014C024
:1000200013C012C011C011241FBECFEDCDBF10E010
:10003000A0E6B0E0E4ECF0E002C005900D92A63638
:10004000B107D9F70DD03CC0DBCF12B887E689B92C
:100050001BB88AB18C608AB983B1866283B908956E
:1000600083E087BB17BAF1DFB29B1EC081E088BB7B
:1000700080E090E00CC0FC01E05AFF4F20812CB9D9
:10008000EFE1FEE43197F1F700C000000196853002
:1000900091058CF3FFEF29EF80E0F1502040804084
:1000A000E1F700C00000E0CF82E088BB9FEFE9EFFE
:1000B000F0E09150E040F040E1F700C00000D4CF04
:0400C000F894FFCFE2
:0600C4005052494E5400A9
:00000001FF
